{
  "_format": "hh-sol-artifact-1",
  "contractName": "PawAdoption",
  "sourceName": "contracts/PawAdoption.sol",
  "abi": [
    {
      "inputs": [],
      "stateMutability": "nonpayable",
      "type": "constructor"
    },
    {
      "inputs": [
        {
          "internalType": "address",
          "name": "owner",
          "type": "address"
        }
      ],
      "name": "OwnableInvalidOwner",
      "type": "error"
    },
    {
      "inputs": [
        {
          "internalType": "address",
          "name": "account",
          "type": "address"
        }
      ],
      "name": "OwnableUnauthorizedAccount",
      "type": "error"
    },
    {
      "anonymous": false,
      "inputs": [
        {
          "indexed": true,
          "internalType": "uint256",
          "name": "applyId",
          "type": "uint256"
        },
        {
          "indexed": true,
          "internalType": "uint256",
          "name": "petId",
          "type": "uint256"
        },
        {
          "indexed": false,
          "internalType": "bool",
          "name": "passed",
          "type": "bool"
        }
      ],
      "name": "ApplicationAudited",
      "type": "event"
    },
    {
      "anonymous": false,
      "inputs": [
        {
          "indexed": true,
          "internalType": "uint256",
          "name": "applyId",
          "type": "uint256"
        },
        {
          "indexed": true,
          "internalType": "uint256",
          "name": "petId",
          "type": "uint256"
        },
        {
          "indexed": true,
          "internalType": "address",
          "name": "adopter",
          "type": "address"
        }
      ],
      "name": "ApplicationSubmitted",
      "type": "event"
    },
    {
      "anonymous": false,
      "inputs": [
        {
          "indexed": true,
          "internalType": "address",
          "name": "previousOwner",
          "type": "address"
        },
        {
          "indexed": true,
          "internalType": "address",
          "name": "newOwner",
          "type": "address"
        }
      ],
      "name": "OwnershipTransferred",
      "type": "event"
    },
    {
      "anonymous": false,
      "inputs": [
        {
          "indexed": true,
          "internalType": "uint256",
          "name": "petId",
          "type": "uint256"
        },
        {
          "indexed": true,
          "internalType": "address",
          "name": "publisher",
          "type": "address"
        }
      ],
      "name": "PetPublished",
      "type": "event"
    },
    {
      "anonymous": false,
      "inputs": [
        {
          "indexed": true,
          "internalType": "address",
          "name": "adopter",
          "type": "address"
        }
      ],
      "name": "RealNameRegistered",
      "type": "event"
    },
    {
      "inputs": [
        {
          "internalType": "string",
          "name": "_nameHash",
          "type": "string"
        },
        {
          "internalType": "string",
          "name": "_idCardHash",
          "type": "string"
        },
        {
          "internalType": "string",
          "name": "_phoneHash",
          "type": "string"
        }
      ],
      "name": "adopterRealNameRegister",
      "outputs": [],
      "stateMutability": "nonpayable",
      "type": "function"
    },
    {
      "inputs": [
        {
          "internalType": "address",
          "name": "",
          "type": "address"
        }
      ],
      "name": "adopterRealNames",
      "outputs": [
        {
          "internalType": "bool",
          "name": "isVerified",
          "type": "bool"
        },
        {
          "internalType": "string",
          "name": "nameHash",
          "type": "string"
        },
        {
          "internalType": "string",
          "name": "idCardHash",
          "type": "string"
        },
        {
          "internalType": "string",
          "name": "phoneHash",
          "type": "string"
        },
        {
          "internalType": "uint256",
          "name": "registerTime",
          "type": "uint256"
        }
      ],
      "stateMutability": "view",
      "type": "function"
    },
    {
      "inputs": [
        {
          "internalType": "uint256",
          "name": "",
          "type": "uint256"
        }
      ],
      "name": "adoptionApplies",
      "outputs": [
        {
          "internalType": "uint256",
          "name": "applyId",
          "type": "uint256"
        },
        {
          "internalType": "uint256",
          "name": "petId",
          "type": "uint256"
        },
        {
          "internalType": "address",
          "name": "adopter",
          "type": "address"
        },
        {
          "internalType": "string",
          "name": "applyMessage",
          "type": "string"
        },
        {
          "internalType": "uint256",
          "name": "applyTime",
          "type": "uint256"
        },
        {
          "internalType": "enum PawAdoption.ApplyStatus",
          "name": "status",
          "type": "uint8"
        }
      ],
      "stateMutability": "view",
      "type": "function"
    },
    {
      "inputs": [],
      "name": "applyTotalCount",
      "outputs": [
        {
          "internalType": "uint256",
          "name": "",
          "type": "uint256"
        }
      ],
      "stateMutability": "view",
      "type": "function"
    },
    {
      "inputs": [
        {
          "internalType": "uint256",
          "name": "_applyId",
          "type": "uint256"
        },
        {
          "internalType": "bool",
          "name": "_isPass",
          "type": "bool"
        }
      ],
      "name": "auditAdoptionApply",
      "outputs": [],
      "stateMutability": "nonpayable",
      "type": "function"
    },
    {
      "inputs": [
        {
          "internalType": "uint256",
          "name": "_petId",
          "type": "uint256"
        }
      ],
      "name": "getPetApplyList",
      "outputs": [
        {
          "internalType": "uint256[]",
          "name": "",
          "type": "uint256[]"
        }
      ],
      "stateMutability": "view",
      "type": "function"
    },
    {
      "inputs": [
        {
          "internalType": "uint256",
          "name": "",
          "type": "uint256"
        },
        {
          "internalType": "address",
          "name": "",
          "type": "address"
        }
      ],
      "name": "hasApplied",
      "outputs": [
        {
          "internalType": "bool",
          "name": "",
          "type": "bool"
        }
      ],
      "stateMutability": "view",
      "type": "function"
    },
    {
      "inputs": [],
      "name": "owner",
      "outputs": [
        {
          "internalType": "address",
          "name": "",
          "type": "address"
        }
      ],
      "stateMutability": "view",
      "type": "function"
    },
    {
      "inputs": [
        {
          "internalType": "uint256",
          "name": "",
          "type": "uint256"
        }
      ],
      "name": "petAdoptions",
      "outputs": [
        {
          "internalType": "uint256",
          "name": "petId",
          "type": "uint256"
        },
        {
          "internalType": "address",
          "name": "publisher",
          "type": "address"
        },
        {
          "internalType": "string",
          "name": "petName",
          "type": "string"
        },
        {
          "internalType": "string",
          "name": "breed",
          "type": "string"
        },
        {
          "internalType": "uint256",
          "name": "age",
          "type": "uint256"
        },
        {
          "internalType": "string",
          "name": "description",
          "type": "string"
        },
        {
          "internalType": "string",
          "name": "imageUrl",
          "type": "string"
        },
        {
          "internalType": "bool",
          "name": "isAdopted",
          "type": "bool"
        },
        {
          "internalType": "uint256",
          "name": "totalApplyCount",
          "type": "uint256"
        }
      ],
      "stateMutability": "view",
      "type": "function"
    },
    {
      "inputs": [
        {
          "internalType": "uint256",
          "name": "",
          "type": "uint256"
        },
        {
          "internalType": "uint256",
          "name": "",
          "type": "uint256"
        }
      ],
      "name": "petApplyList",
      "outputs": [
        {
          "internalType": "uint256",
          "name": "",
          "type": "uint256"
        }
      ],
      "stateMutability": "view",
      "type": "function"
    },
    {
      "inputs": [],
      "name": "petTotalCount",
      "outputs": [
        {
          "internalType": "uint256",
          "name": "",
          "type": "uint256"
        }
      ],
      "stateMutability": "view",
      "type": "function"
    },
    {
      "inputs": [
        {
          "internalType": "string",
          "name": "_petName",
          "type": "string"
        },
        {
          "internalType": "string",
          "name": "_breed",
          "type": "string"
        },
        {
          "internalType": "uint256",
          "name": "_age",
          "type": "uint256"
        },
        {
          "internalType": "string",
          "name": "_description",
          "type": "string"
        },
        {
          "internalType": "string",
          "name": "_imageUrl",
          "type": "string"
        }
      ],
      "name": "publishPetAdoption",
      "outputs": [],
      "stateMutability": "nonpayable",
      "type": "function"
    },
    {
      "inputs": [],
      "name": "renounceOwnership",
      "outputs": [],
      "stateMutability": "nonpayable",
      "type": "function"
    },
    {
      "inputs": [
        {
          "internalType": "uint256",
          "name": "_petId",
          "type": "uint256"
        },
        {
          "internalType": "string",
          "name": "_applyMessage",
          "type": "string"
        }
      ],
      "name": "submitAdoptionApply",
      "outputs": [],
      "stateMutability": "nonpayable",
      "type": "function"
    },
    {
      "inputs": [
        {
          "internalType": "address",
          "name": "newOwner",
          "type": "address"
        }
      ],
      "name": "transferOwnership",
      "outputs": [],
      "stateMutability": "nonpayable",
      "type": "function"
    },
    {
      "inputs": [
        {
          "internalType": "address",
          "name": "_adopter",
          "type": "address"
        },
        {
          "internalType": "string",
          "name": "_nameHash",
          "type": "string"
        },
        {
          "internalType": "string",
          "name": "_idCardHash",
          "type": "string"
        },
        {
          "internalType": "string",
          "name": "_phoneHash",
          "type": "string"
        }
      ],
      "name": "verifyAdopterRealName",
      "outputs": [
        {
          "internalType": "bool",
          "name": "",
          "type": "bool"
        }
      ],
      "stateMutability": "view",
      "type": "function"
    }
  ],
  "bytecode": "0x60806040523480156200001157600080fd5b5033600073ffffffffffffffffffffffffffffffffffffffff168173ffffffffffffffffffffffffffffffffffffffff1603620000885760006040517f1e4fbdf70000000000000000000000000000000000000000000000000000000081526004016200007f9190620001a9565b60405180910390fd5b6200009981620000a060201b60201c565b50620001c6565b60008060009054906101000a900473ffffffffffffffffffffffffffffffffffffffff169050816000806101000a81548173ffffffffffffffffffffffffffffffffffffffff021916908373ffffffffffffffffffffffffffffffffffffffff1602179055508173ffffffffffffffffffffffffffffffffffffffff168173ffffffffffffffffffffffffffffffffffffffff167f8be0079c531659141344cd1fd0a4f28419497f9722a3daafe3b4186f6b6457e060405160405180910390a35050565b600073ffffffffffffffffffffffffffffffffffffffff82169050919050565b6000620001918262000164565b9050919050565b620001a38162000184565b82525050565b6000602082019050620001c0600083018462000198565b92915050565b612a5680620001d66000396000f3fe608060405234801561001057600080fd5b50600436106101005760003560e01c8063a39bf54411610097578063f25a45f311610066578063f25a45f3146102e4578063f2fde38b14610300578063fb69761a1461031c578063fe26720a1461033857610100565b8063a39bf5441461024a578063a665c98c1461027a578063aaa1e7ee146102aa578063e98e105d146102c657610100565b80636eca0f92116100d35780636eca0f92146101bd578063715018a6146101ed578063767715d5146101f75780638da5cb5b1461022c57610100565b806327733ce1146101055780633ba9d94d146101395780635769b389146101555780636cc2528314610185575b600080fd5b61011f600480360381019061011a919061197a565b610356565b604051610130959493929190611a6b565b60405180910390f35b610153600480360381019061014e9190611b2b565b610531565b005b61016f600480360381019061016a9190611b6b565b6107c1565b60405161017c9190611bab565b60405180910390f35b61019f600480360381019061019a9190611bc6565b6107f2565b6040516101b499989796959493929190611c02565b60405180910390f35b6101d760048036038101906101d29190611de0565b610a8d565b6040516101e49190611e9b565b60405180910390f35b6101f5610dcb565b005b610211600480360381019061020c9190611bc6565b610ddf565b60405161022396959493929190611f2d565b60405180910390f35b610234610ed0565b6040516102419190611f95565b60405180910390f35b610264600480360381019061025f9190611fb0565b610ef9565b6040516102719190611e9b565b60405180910390f35b610294600480360381019061028f9190611bc6565b610f28565b6040516102a191906120ae565b60405180910390f35b6102c460048036038101906102bf91906120d0565b610f93565b005b6102ce611147565b6040516102db9190611bab565b60405180910390f35b6102fe60048036038101906102f991906121bb565b61114d565b005b61031a6004803603810190610315919061197a565b611579565b005b61033660048036038101906103319190612217565b6115ff565b005b6103406117af565b60405161034d9190611bab565b60405180910390f35b60036020528060005260406000206000915090508060000160009054906101000a900460ff169080600101805461038c906122ed565b80601f01602080910402602001604051908101604052809291908181526020018280546103b8906122ed565b80156104055780601f106103da57610100808354040283529160200191610405565b820191906000526020600020905b8154815290600101906020018083116103e857829003601f168201915b50505050509080600201805461041a906122ed565b80601f0160208091040260200160405190810160405280929190818152602001828054610446906122ed565b80156104935780601f1061046857610100808354040283529160200191610493565b820191906000526020600020905b81548152906001019060200180831161047657829003601f168201915b5050505050908060030180546104a8906122ed565b80601f01602080910402602001604051908101604052809291908181526020018280546104d4906122ed565b80156105215780601f106104f657610100808354040283529160200191610521565b820191906000526020600020905b81548152906001019060200180831161050457829003601f168201915b5050505050908060040154905085565b60008211801561054357506006548211155b610582576040517f08c379a00000000000000000000000000000000000000000000000000000000081526004016105799061236a565b60405180910390fd5b6000600281111561059657610595611eb6565b5b6004600084815260200190815260200160002060050160009054906101000a900460ff1660028111156105cc576105cb611eb6565b5b1461060c576040517f08c379a0000000000000000000000000000000000000000000000000000000008152600401610603906123d6565b60405180910390fd5b6000600460008481526020019081526020016000206001015490503373ffffffffffffffffffffffffffffffffffffffff166001600083815260200190815260200160002060010160009054906101000a900473ffffffffffffffffffffffffffffffffffffffff1673ffffffffffffffffffffffffffffffffffffffff16146106cb576040517f08c379a00000000000000000000000000000000000000000000000000000000081526004016106c290612442565b60405180910390fd5b81156107435760016004600085815260200190815260200160002060050160006101000a81548160ff0219169083600281111561070b5761070a611eb6565b5b0217905550600180600083815260200190815260200160002060070160006101000a81548160ff021916908315150217905550610783565b60026004600085815260200190815260200160002060050160006101000a81548160ff0219169083600281111561077d5761077c611eb6565b5b02179055505b80837ffa877d3c34c7f81ef9673a422cfa46c24c7c3f2e25218300b5b1d4b6223dc97f846040516107b49190611e9b565b60405180910390a3505050565b600560205281600052604060002081815481106107dd57600080fd5b90600052602060002001600091509150505481565b60016020528060005260406000206000915090508060000154908060010160009054906101000a900473ffffffffffffffffffffffffffffffffffffffff1690806002018054610841906122ed565b80601f016020809104026020016040519081016040528092919081815260200182805461086d906122ed565b80156108ba5780601f1061088f576101008083540402835291602001916108ba565b820191906000526020600020905b81548152906001019060200180831161089d57829003601f168201915b5050505050908060030180546108cf906122ed565b80601f01602080910402602001604051908101604052809291908181526020018280546108fb906122ed565b80156109485780601f1061091d57610100808354040283529160200191610948565b820191906000526020600020905b81548152906001019060200180831161092b57829003601f168201915b505050505090806004015490806005018054610963906122ed565b80601f016020809104026020016040519081016040528092919081815260200182805461098f906122ed565b80156109dc5780601f106109b1576101008083540402835291602001916109dc565b820191906000526020600020905b8154815290600101906020018083116109bf57829003601f168201915b5050505050908060060180546109f1906122ed565b80601f0160208091040260200160405190810160405280929190818152602001828054610a1d906122ed565b8015610a6a5780601f10610a3f57610100808354040283529160200191610a6a565b820191906000526020600020905b815481529060010190602001808311610a4d57829003601f168201915b5050505050908060070160009054906101000a900460ff16908060080154905089565b600080600360008773ffffffffffffffffffffffffffffffffffffffff1673ffffffffffffffffffffffffffffffffffffffff1681526020019081526020016000206040518060a00160405290816000820160009054906101000a900460ff16151515158152602001600182018054610b05906122ed565b80601f0160208091040260200160405190810160405280929190818152602001828054610b31906122ed565b8015610b7e5780601f10610b5357610100808354040283529160200191610b7e565b820191906000526020600020905b815481529060010190602001808311610b6157829003601f168201915b50505050508152602001600282018054610b97906122ed565b80601f0160208091040260200160405190810160405280929190818152602001828054610bc3906122ed565b8015610c105780601f10610be557610100808354040283529160200191610c10565b820191906000526020600020905b815481529060010190602001808311610bf357829003601f168201915b50505050508152602001600382018054610c29906122ed565b80601f0160208091040260200160405190810160405280929190818152602001828054610c55906122ed565b8015610ca25780601f10610c7757610100808354040283529160200191610ca2565b820191906000526020600020905b815481529060010190602001808311610c8557829003601f168201915b50505050508152602001600482015481525050905084604051602001610cc8919061249e565b604051602081830303815290604052805190602001208160200151604051602001610cf3919061249e565b60405160208183030381529060405280519060200120148015610d65575083604051602001610d22919061249e565b604051602081830303815290604052805190602001208160400151604051602001610d4d919061249e565b60405160208183030381529060405280519060200120145b8015610dc0575082604051602001610d7d919061249e565b604051602081830303815290604052805190602001208160600151604051602001610da8919061249e565b60405160208183030381529060405280519060200120145b915050949350505050565b610dd36117b5565b610ddd600061183c565b565b60046020528060005260406000206000915090508060000154908060010154908060020160009054906101000a900473ffffffffffffffffffffffffffffffffffffffff1690806003018054610e34906122ed565b80601f0160208091040260200160405190810160405280929190818152602001828054610e60906122ed565b8015610ead5780601f10610e8257610100808354040283529160200191610ead565b820191906000526020600020905b815481529060010190602001808311610e9057829003601f168201915b5050505050908060040154908060050160009054906101000a900460ff16905086565b60008060009054906101000a900473ffffffffffffffffffffffffffffffffffffffff16905090565b60076020528160005260406000206020528060005260406000206000915091509054906101000a900460ff1681565b606060056000838152602001908152602001600020805480602002602001604051908101604052809291908181526020018280548015610f8757602002820191906000526020600020905b815481526020019060010190808311610f73575b50505050509050919050565b60006001600254610fa491906124e4565b90506040518061012001604052808281526020013373ffffffffffffffffffffffffffffffffffffffff1681526020018781526020018681526020018581526020018481526020018381526020016000151581526020016000815250600160008381526020019081526020016000206000820151816000015560208201518160010160006101000a81548173ffffffffffffffffffffffffffffffffffffffff021916908373ffffffffffffffffffffffffffffffffffffffff160217905550604082015181600201908161107991906126c4565b50606082015181600301908161108f91906126c4565b506080820151816004015560a08201518160050190816110af91906126c4565b5060c08201518160060190816110c591906126c4565b5060e08201518160070160006101000a81548160ff0219169083151502179055506101008201518160080155905050806002819055503373ffffffffffffffffffffffffffffffffffffffff16817f356c8b0664837ff1b13e1f4099eb014c1a7c1ebaebc3c5b15fb78ce98cc398c060405160405180910390a3505050505050565b60065481565b60008211801561115f57506002548211155b61119e576040517f08c379a0000000000000000000000000000000000000000000000000000000008152600401611195906127e2565b60405180910390fd5b6001600083815260200190815260200160002060070160009054906101000a900460ff1615611202576040517f08c379a00000000000000000000000000000000000000000000000000000000081526004016111f99061284e565b60405180910390fd5b600360003373ffffffffffffffffffffffffffffffffffffffff1673ffffffffffffffffffffffffffffffffffffffff16815260200190815260200160002060000160009054906101000a900460ff16611291576040517f08c379a0000000000000000000000000000000000000000000000000000000008152600401611288906128e0565b60405180910390fd5b6007600083815260200190815260200160002060003373ffffffffffffffffffffffffffffffffffffffff1673ffffffffffffffffffffffffffffffffffffffff16815260200190815260200160002060009054906101000a900460ff161561132f576040517f08c379a00000000000000000000000000000000000000000000000000000000081526004016113269061294c565b60405180910390fd5b6000600160065461134091906124e4565b90506040518060c001604052808281526020018481526020013373ffffffffffffffffffffffffffffffffffffffff1681526020018381526020014281526020016000600281111561139557611394611eb6565b5b81525060046000838152602001908152602001600020600082015181600001556020820151816001015560408201518160020160006101000a81548173ffffffffffffffffffffffffffffffffffffffff021916908373ffffffffffffffffffffffffffffffffffffffff160217905550606082015181600301908161141b91906126c4565b506080820151816004015560a08201518160050160006101000a81548160ff0219169083600281111561145157611450611eb6565b5b021790555090505060016007600085815260200190815260200160002060003373ffffffffffffffffffffffffffffffffffffffff1673ffffffffffffffffffffffffffffffffffffffff16815260200190815260200160002060006101000a81548160ff021916908315150217905550600560008481526020019081526020016000208190806001815401808255809150506001900390600052602060002001600090919091909150556001600084815260200190815260200160002060080160008154809291906115239061296c565b9190505550806006819055503373ffffffffffffffffffffffffffffffffffffffff1683827ffdb73f695bc6f43d03128339b6d99121833f5cb8d65f8cb3ffc6abe2e08a0a5b60405160405180910390a4505050565b6115816117b5565b600073ffffffffffffffffffffffffffffffffffffffff168173ffffffffffffffffffffffffffffffffffffffff16036115f35760006040517f1e4fbdf70000000000000000000000000000000000000000000000000000000081526004016115ea9190611f95565b60405180910390fd5b6115fc8161183c565b50565b600360003373ffffffffffffffffffffffffffffffffffffffff1673ffffffffffffffffffffffffffffffffffffffff16815260200190815260200160002060000160009054906101000a900460ff161561168f576040517f08c379a000000000000000000000000000000000000000000000000000000000815260040161168690612a00565b60405180910390fd5b6040518060a0016040528060011515815260200184815260200183815260200182815260200142815250600360003373ffffffffffffffffffffffffffffffffffffffff1673ffffffffffffffffffffffffffffffffffffffff16815260200190815260200160002060008201518160000160006101000a81548160ff021916908315150217905550602082015181600101908161172d91906126c4565b50604082015181600201908161174391906126c4565b50606082015181600301908161175991906126c4565b50608082015181600401559050503373ffffffffffffffffffffffffffffffffffffffff167fb929afae12158366dfb1a249df1179d7433aa11e6a0fb7458d8bedaab9ce2c8f60405160405180910390a2505050565b60025481565b6117bd611900565b73ffffffffffffffffffffffffffffffffffffffff166117db610ed0565b73ffffffffffffffffffffffffffffffffffffffff161461183a576117fe611900565b6040517f118cdaa70000000000000000000000000000000000000000000000000000000081526004016118319190611f95565b60405180910390fd5b565b60008060009054906101000a900473ffffffffffffffffffffffffffffffffffffffff169050816000806101000a81548173ffffffffffffffffffffffffffffffffffffffff021916908373ffffffffffffffffffffffffffffffffffffffff1602179055508173ffffffffffffffffffffffffffffffffffffffff168173ffffffffffffffffffffffffffffffffffffffff167f8be0079c531659141344cd1fd0a4f28419497f9722a3daafe3b4186f6b6457e060405160405180910390a35050565b600033905090565b6000604051905090565b600080fd5b600080fd5b600073ffffffffffffffffffffffffffffffffffffffff82169050919050565b60006119478261191c565b9050919050565b6119578161193c565b811461196257600080fd5b50565b6000813590506119748161194e565b92915050565b6000602082840312156119905761198f611912565b5b600061199e84828501611965565b91505092915050565b60008115159050919050565b6119bc816119a7565b82525050565b600081519050919050565b600082825260208201905092915050565b60005b838110156119fc5780820151818401526020810190506119e1565b60008484015250505050565b6000601f19601f8301169050919050565b6000611a24826119c2565b611a2e81856119cd565b9350611a3e8185602086016119de565b611a4781611a08565b840191505092915050565b6000819050919050565b611a6581611a52565b82525050565b600060a082019050611a8060008301886119b3565b8181036020830152611a928187611a19565b90508181036040830152611aa68186611a19565b90508181036060830152611aba8185611a19565b9050611ac96080830184611a5c565b9695505050505050565b611adc81611a52565b8114611ae757600080fd5b50565b600081359050611af981611ad3565b92915050565b611b08816119a7565b8114611b1357600080fd5b50565b600081359050611b2581611aff565b92915050565b60008060408385031215611b4257611b41611912565b5b6000611b5085828601611aea565b9250506020611b6185828601611b16565b9150509250929050565b60008060408385031215611b8257611b81611912565b5b6000611b9085828601611aea565b9250506020611ba185828601611aea565b9150509250929050565b6000602082019050611bc06000830184611a5c565b92915050565b600060208284031215611bdc57611bdb611912565b5b6000611bea84828501611aea565b91505092915050565b611bfc8161193c565b82525050565b600061012082019050611c18600083018c611a5c565b611c25602083018b611bf3565b8181036040830152611c37818a611a19565b90508181036060830152611c4b8189611a19565b9050611c5a6080830188611a5c565b81810360a0830152611c6c8187611a19565b905081810360c0830152611c808186611a19565b9050611c8f60e08301856119b3565b611c9d610100830184611a5c565b9a9950505050505050505050565b600080fd5b600080fd5b7f4e487b7100000000000000000000000000000000000000000000000000000000600052604160045260246000fd5b611ced82611a08565b810181811067ffffffffffffffff82111715611d0c57611d0b611cb5565b5b80604052505050565b6000611d1f611908565b9050611d2b8282611ce4565b919050565b600067ffffffffffffffff821115611d4b57611d4a611cb5565b5b611d5482611a08565b9050602081019050919050565b82818337600083830152505050565b6000611d83611d7e84611d30565b611d15565b905082815260208101848484011115611d9f57611d9e611cb0565b5b611daa848285611d61565b509392505050565b600082601f830112611dc757611dc6611cab565b5b8135611dd7848260208601611d70565b91505092915050565b60008060008060808587031215611dfa57611df9611912565b5b6000611e0887828801611965565b945050602085013567ffffffffffffffff811115611e2957611e28611917565b5b611e3587828801611db2565b935050604085013567ffffffffffffffff811115611e5657611e55611917565b5b611e6287828801611db2565b925050606085013567ffffffffffffffff811115611e8357611e82611917565b5b611e8f87828801611db2565b91505092959194509250565b6000602082019050611eb060008301846119b3565b92915050565b7f4e487b7100000000000000000000000000000000000000000000000000000000600052602160045260246000fd5b60038110611ef657611ef5611eb6565b5b50565b6000819050611f0782611ee5565b919050565b6000611f1782611ef9565b9050919050565b611f2781611f0c565b82525050565b600060c082019050611f426000830189611a5c565b611f4f6020830188611a5c565b611f5c6040830187611bf3565b8181036060830152611f6e8186611a19565b9050611f7d6080830185611a5c565b611f8a60a0830184611f1e565b979650505050505050565b6000602082019050611faa6000830184611bf3565b92915050565b60008060408385031215611fc757611fc6611912565b5b6000611fd585828601611aea565b9250506020611fe685828601611965565b9150509250929050565b600081519050919050565b600082825260208201905092915050565b6000819050602082019050919050565b61202581611a52565b82525050565b6000612037838361201c565b60208301905092915050565b6000602082019050919050565b600061205b82611ff0565b6120658185611ffb565b93506120708361200c565b8060005b838110156120a1578151612088888261202b565b975061209383612043565b925050600181019050612074565b5085935050505092915050565b600060208201905081810360008301526120c88184612050565b905092915050565b600080600080600060a086880312156120ec576120eb611912565b5b600086013567ffffffffffffffff81111561210a57612109611917565b5b61211688828901611db2565b955050602086013567ffffffffffffffff81111561213757612136611917565b5b61214388828901611db2565b945050604061215488828901611aea565b935050606086013567ffffffffffffffff81111561217557612174611917565b5b61218188828901611db2565b925050608086013567ffffffffffffffff8111156121a2576121a1611917565b5b6121ae88828901611db2565b9150509295509295909350565b600080604083850312156121d2576121d1611912565b5b60006121e085828601611aea565b925050602083013567ffffffffffffffff81111561220157612200611917565b5b61220d85828601611db2565b9150509250929050565b6000806000606084860312156122305761222f611912565b5b600084013567ffffffffffffffff81111561224e5761224d611917565b5b61225a86828701611db2565b935050602084013567ffffffffffffffff81111561227b5761227a611917565b5b61228786828701611db2565b925050604084013567ffffffffffffffff8111156122a8576122a7611917565b5b6122b486828701611db2565b9150509250925092565b7f4e487b7100000000000000000000000000000000000000000000000000000000600052602260045260246000fd5b6000600282049050600182168061230557607f821691505b602082108103612318576123176122be565b5b50919050565b7f4170706c69636174696f6e20646f6573206e6f74206578697374000000000000600082015250565b6000612354601a836119cd565b915061235f8261231e565b602082019050919050565b6000602082019050818103600083015261238381612347565b9050919050565b7f4170706c69636174696f6e20686173206265656e206175646974656400000000600082015250565b60006123c0601c836119cd565b91506123cb8261238a565b602082019050919050565b600060208201905081810360008301526123ef816123b3565b9050919050565b7f4f6e6c79207075626c69736865722063616e2061756469740000000000000000600082015250565b600061242c6018836119cd565b9150612437826123f6565b602082019050919050565b6000602082019050818103600083015261245b8161241f565b9050919050565b600081905092915050565b6000612478826119c2565b6124828185612462565b93506124928185602086016119de565b80840191505092915050565b60006124aa828461246d565b915081905092915050565b7f4e487b7100000000000000000000000000000000000000000000000000000000600052601160045260246000fd5b60006124ef82611a52565b91506124fa83611a52565b9250828201905080821115612512576125116124b5565b5b92915050565b60008190508160005260206000209050919050565b60006020601f8301049050919050565b600082821b905092915050565b60006008830261257a7fffffffffffffffffffffffffffffffffffffffffffffffffffffffffffffffff8261253d565b612584868361253d565b95508019841693508086168417925050509392505050565b6000819050919050565b60006125c16125bc6125b784611a52565b61259c565b611a52565b9050919050565b6000819050919050565b6125db836125a6565b6125ef6125e7826125c8565b84845461254a565b825550505050565b600090565b6126046125f7565b61260f8184846125d2565b505050565b5b81811015612633576126286000826125fc565b600181019050612615565b5050565b601f8211156126785761264981612518565b6126528461252d565b81016020851015612661578190505b61267561266d8561252d565b830182612614565b50505b505050565b600082821c905092915050565b600061269b6000198460080261267d565b1980831691505092915050565b60006126b4838361268a565b9150826002028217905092915050565b6126cd826119c2565b67ffffffffffffffff8111156126e6576126e5611cb5565b5b6126f082546122ed565b6126fb828285612637565b600060209050601f83116001811461272e576000841561271c578287015190505b61272685826126a8565b86555061278e565b601f19841661273c86612518565b60005b828110156127645784890151825560018201915060208501945060208101905061273f565b86831015612781578489015161277d601f89168261268a565b8355505b6001600288020188555050505b505050505050565b7f50657420646f6573206e6f742065786973740000000000000000000000000000600082015250565b60006127cc6012836119cd565b91506127d782612796565b602082019050919050565b600060208201905081810360008301526127fb816127bf565b9050919050565b7f50657420686173206265656e2061646f70746564000000000000000000000000600082015250565b60006128386014836119cd565b915061284382612802565b602082019050919050565b600060208201905081810360008301526128678161282b565b9050919050565b7f506c6561736520636f6d706c657465207265616c206e616d652072656769737460008201527f726174696f6e2066697273740000000000000000000000000000000000000000602082015250565b60006128ca602c836119cd565b91506128d58261286e565b604082019050919050565b600060208201905081810360008301526128f9816128bd565b9050919050565b7f416c7265616479206170706c69656420666f7220746869732070657400000000600082015250565b6000612936601c836119cd565b915061294182612900565b602082019050919050565b6000602082019050818103600083015261296581612929565b9050919050565b600061297782611a52565b91507fffffffffffffffffffffffffffffffffffffffffffffffffffffffffffffffff82036129a9576129a86124b5565b5b600182019050919050565b7f416c726561647920726567697374657265640000000000000000000000000000600082015250565b60006129ea6012836119cd565b91506129f5826129b4565b602082019050919050565b60006020820190508181036000830152612a19816129dd565b905091905056fea26469706673582212200ad3ea0f8615b5d8b0ddc876feca5099766e34347799febcd08ce75f0274864764736f6c63430008160033",
  "linkReferences": {},
  "deployedLinkReferences": {}
}